{
  "_format": "hh-sol-artifact-1",
  "contractName": "MyEpicNFT",
  "sourceName": "contracts/MyEpicNFT.sol",
  "abi": [
    {
      "inputs": [],
      "stateMutability": "nonpayable",
      "type": "constructor"
    },
    {
      "anonymous": false,
      "inputs": [
        {
          "indexed": true,
          "internalType": "address",
          "name": "owner",
          "type": "address"
        },
        {
          "indexed": true,
          "internalType": "address",
          "name": "approved",
          "type": "address"
        },
        {
          "indexed": true,
          "internalType": "uint256",
          "name": "tokenId",
          "type": "uint256"
        }
      ],
      "name": "Approval",
      "type": "event"
    },
    {
      "anonymous": false,
      "inputs": [
        {
          "indexed": true,
          "internalType": "address",
          "name": "owner",
          "type": "address"
        },
        {
          "indexed": true,
          "internalType": "address",
          "name": "operator",
          "type": "address"
        },
        {
          "indexed": false,
          "internalType": "bool",
          "name": "approved",
          "type": "bool"
        }
      ],
      "name": "ApprovalForAll",
      "type": "event"
    },
    {
      "anonymous": false,
      "inputs": [
        {
          "indexed": false,
          "internalType": "address",
          "name": "sender",
          "type": "address"
        },
        {
          "indexed": false,
          "internalType": "uint256",
          "name": "tokenId",
          "type": "uint256"
        }
      ],
      "name": "NewEpicNFTMinted",
      "type": "event"
    },
    {
      "anonymous": false,
      "inputs": [
        {
          "indexed": true,
          "internalType": "address",
          "name": "from",
          "type": "address"
        },
        {
          "indexed": true,
          "internalType": "address",
          "name": "to",
          "type": "address"
        },
        {
          "indexed": true,
          "internalType": "uint256",
          "name": "tokenId",
          "type": "uint256"
        }
      ],
      "name": "Transfer",
      "type": "event"
    },
    {
      "inputs": [
        {
          "internalType": "address",
          "name": "to",
          "type": "address"
        },
        {
          "internalType": "uint256",
          "name": "tokenId",
          "type": "uint256"
        }
      ],
      "name": "approve",
      "outputs": [],
      "stateMutability": "nonpayable",
      "type": "function"
    },
    {
      "inputs": [
        {
          "internalType": "address",
          "name": "owner",
          "type": "address"
        }
      ],
      "name": "balanceOf",
      "outputs": [
        {
          "internalType": "uint256",
          "name": "",
          "type": "uint256"
        }
      ],
      "stateMutability": "view",
      "type": "function"
    },
    {
      "inputs": [
        {
          "internalType": "uint256",
          "name": "tokenId",
          "type": "uint256"
        }
      ],
      "name": "getApproved",
      "outputs": [
        {
          "internalType": "address",
          "name": "",
          "type": "address"
        }
      ],
      "stateMutability": "view",
      "type": "function"
    },
    {
      "inputs": [
        {
          "internalType": "address",
          "name": "owner",
          "type": "address"
        },
        {
          "internalType": "address",
          "name": "operator",
          "type": "address"
        }
      ],
      "name": "isApprovedForAll",
      "outputs": [
        {
          "internalType": "bool",
          "name": "",
          "type": "bool"
        }
      ],
      "stateMutability": "view",
      "type": "function"
    },
    {
      "inputs": [],
      "name": "makeEpicNFT",
      "outputs": [],
      "stateMutability": "nonpayable",
      "type": "function"
    },
    {
      "inputs": [],
      "name": "name",
      "outputs": [
        {
          "internalType": "string",
          "name": "",
          "type": "string"
        }
      ],
      "stateMutability": "view",
      "type": "function"
    },
    {
      "inputs": [
        {
          "internalType": "uint256",
          "name": "tokenId",
          "type": "uint256"
        }
      ],
      "name": "ownerOf",
      "outputs": [
        {
          "internalType": "address",
          "name": "",
          "type": "address"
        }
      ],
      "stateMutability": "view",
      "type": "function"
    },
    {
      "inputs": [
        {
          "internalType": "uint256",
          "name": "tokenId",
          "type": "uint256"
        }
      ],
      "name": "pickRandomColor",
      "outputs": [
        {
          "internalType": "string",
          "name": "",
          "type": "string"
        }
      ],
      "stateMutability": "view",
      "type": "function"
    },
    {
      "inputs": [
        {
          "internalType": "uint256",
          "name": "tokenId",
          "type": "uint256"
        }
      ],
      "name": "pickRandomFirstWord",
      "outputs": [
        {
          "internalType": "string",
          "name": "",
          "type": "string"
        }
      ],
      "stateMutability": "view",
      "type": "function"
    },
    {
      "inputs": [
        {
          "internalType": "uint256",
          "name": "tokenId",
          "type": "uint256"
        }
      ],
      "name": "pickRandomSecondWord",
      "outputs": [
        {
          "internalType": "string",
          "name": "",
          "type": "string"
        }
      ],
      "stateMutability": "view",
      "type": "function"
    },
    {
      "inputs": [
        {
          "internalType": "uint256",
          "name": "tokenId",
          "type": "uint256"
        }
      ],
      "name": "pickRandomThirdWord",
      "outputs": [
        {
          "internalType": "string",
          "name": "",
          "type": "string"
        }
      ],
      "stateMutability": "view",
      "type": "function"
    },
    {
      "inputs": [
        {
          "internalType": "address",
          "name": "from",
          "type": "address"
        },
        {
          "internalType": "address",
          "name": "to",
          "type": "address"
        },
        {
          "internalType": "uint256",
          "name": "tokenId",
          "type": "uint256"
        }
      ],
      "name": "safeTransferFrom",
      "outputs": [],
      "stateMutability": "nonpayable",
      "type": "function"
    },
    {
      "inputs": [
        {
          "internalType": "address",
          "name": "from",
          "type": "address"
        },
        {
          "internalType": "address",
          "name": "to",
          "type": "address"
        },
        {
          "internalType": "uint256",
          "name": "tokenId",
          "type": "uint256"
        },
        {
          "internalType": "bytes",
          "name": "_data",
          "type": "bytes"
        }
      ],
      "name": "safeTransferFrom",
      "outputs": [],
      "stateMutability": "nonpayable",
      "type": "function"
    },
    {
      "inputs": [
        {
          "internalType": "address",
          "name": "operator",
          "type": "address"
        },
        {
          "internalType": "bool",
          "name": "approved",
          "type": "bool"
        }
      ],
      "name": "setApprovalForAll",
      "outputs": [],
      "stateMutability": "nonpayable",
      "type": "function"
    },
    {
      "inputs": [
        {
          "internalType": "bytes4",
          "name": "interfaceId",
          "type": "bytes4"
        }
      ],
      "name": "supportsInterface",
      "outputs": [
        {
          "internalType": "bool",
          "name": "",
          "type": "bool"
        }
      ],
      "stateMutability": "view",
      "type": "function"
    },
    {
      "inputs": [],
      "name": "symbol",
      "outputs": [
        {
          "internalType": "string",
          "name": "",
          "type": "string"
        }
      ],
      "stateMutability": "view",
      "type": "function"
    },
    {
      "inputs": [
        {
          "internalType": "uint256",
          "name": "tokenId",
          "type": "uint256"
        }
      ],
      "name": "tokenURI",
      "outputs": [
        {
          "internalType": "string",
          "name": "",
          "type": "string"
        }
      ],
      "stateMutability": "view",
      "type": "function"
    },
    {
      "inputs": [
        {
          "internalType": "address",
          "name": "from",
          "type": "address"
        },
        {
          "internalType": "address",
          "name": "to",
          "type": "address"
        },
        {
          "internalType": "uint256",
          "name": "tokenId",
          "type": "uint256"
        }
      ],
      "name": "transferFrom",
      "outputs": [],
      "stateMutability": "nonpayable",
      "type": "function"
    }
  ],
  "bytecode": "0x608060405260405180610100016040528060d3815260200162004bde60d39139600890805190602001906200003692919062000c1a565b5060405180608001604052806056815260200162004cb160569139600990805190602001906200006892919062000c1a565b506040518061016001604052806040518060400160405280600681526020017f776569676874000000000000000000000000000000000000000000000000000081525081526020016040518060400160405280600981526020017f707265736964657374000000000000000000000000000000000000000000000081525081526020016040518060400160405280600381526020017f6f7265000000000000000000000000000000000000000000000000000000000081525081526020016040518060400160405280600881526020017f66756d626c696e6700000000000000000000000000000000000000000000000081525081526020016040518060400160405280600a81526020017f73756273657175656e740000000000000000000000000000000000000000000081525081526020016040518060400160405280600781526020017f65617461626c650000000000000000000000000000000000000000000000000081525081526020016040518060400160405280600481526020017f666973680000000000000000000000000000000000000000000000000000000081525081526020016040518060400160405280600581526020017f736c65657000000000000000000000000000000000000000000000000000000081525081526020016040518060400160405280600981526020017f74656d706f72617279000000000000000000000000000000000000000000000081525081526020016040518060400160405280600481526020017f736176650000000000000000000000000000000000000000000000000000000081525081526020016040518060400160405280600c81526020017f6a7576656e696c6577696e640000000000000000000000000000000000000000815250815250600a90600b6200030e92919062000cab565b506040518061018001604052806040518060400160405280600881526020017f6f70706f7369746500000000000000000000000000000000000000000000000081525081526020016040518060400160405280600581526020017f746967687400000000000000000000000000000000000000000000000000000081525081526020016040518060400160405280600581526020017f6275696c6400000000000000000000000000000000000000000000000000000081525081526020016040518060400160405280600581526020017f636865656b00000000000000000000000000000000000000000000000000000081525081526020016040518060400160405280600581526020017f736865657000000000000000000000000000000000000000000000000000000081525081526020016040518060400160405280600681526020017f636f6c6c6172000000000000000000000000000000000000000000000000000081525081526020016040518060400160405280600681526020017f627566666574000000000000000000000000000000000000000000000000000081525081526020016040518060400160405280600a81526020017f636f6e73747261696e740000000000000000000000000000000000000000000081525081526020016040518060400160405280600881526020017f7265616374696f6e00000000000000000000000000000000000000000000000081525081526020016040518060400160405280600481526020017f7061776e0000000000000000000000000000000000000000000000000000000081525081526020016040518060400160405280600681526020017f737572766579000000000000000000000000000000000000000000000000000081525081526020016040518060400160405280600781526020017f6d656574696e6700000000000000000000000000000000000000000000000000815250815250600b90600c620005ef92919062000d12565b506040518061018001604052806040518060400160405280600681526020017f626f6d626572000000000000000000000000000000000000000000000000000081525081526020016040518060400160405280600481526020017f646561640000000000000000000000000000000000000000000000000000000081525081526020016040518060400160405280600781526020017f667265696768740000000000000000000000000000000000000000000000000081525081526020016040518060400160405280600881526020017f736563757269747900000000000000000000000000000000000000000000000081525081526020016040518060400160405280600981526020017f706172616c797a6564000000000000000000000000000000000000000000000081525081526020016040518060400160405280600881526020017f616363757261746500000000000000000000000000000000000000000000000081525081526020016040518060400160405280600581526020017f72656c617800000000000000000000000000000000000000000000000000000081525081526020016040518060400160405280600881526020017f66656d696e69737400000000000000000000000000000000000000000000000081525081526020016040518060400160405280600381526020017f656174000000000000000000000000000000000000000000000000000000000081525081526020016040518060400160405280600781526020017f637265766963650000000000000000000000000000000000000000000000000081525081526020016040518060400160405280600881526020017f6e6567617469766500000000000000000000000000000000000000000000000081525081526020016040518060400160405280600481526020017f6561737900000000000000000000000000000000000000000000000000000000815250815250600c90600c620008d092919062000d12565b506040518060c001604052806040518060400160405280600381526020017f726564000000000000000000000000000000000000000000000000000000000081525081526020016040518060400160405280600781526020017f233038433241380000000000000000000000000000000000000000000000000081525081526020016040518060400160405280600581526020017f626c61636b00000000000000000000000000000000000000000000000000000081525081526020016040518060400160405280600681526020017f79656c6c6f77000000000000000000000000000000000000000000000000000081525081526020016040518060400160405280600481526020017f626c75650000000000000000000000000000000000000000000000000000000081525081526020016040518060400160405280600581526020017f677265656e000000000000000000000000000000000000000000000000000000815250815250600d90600662000a4e92919062000d79565b5034801562000a5c57600080fd5b506040518060400160405280600781526020017f776f72644e4654000000000000000000000000000000000000000000000000008152506040518060400160405280600d81526020017f4f4e452d4f462d412d4b494e4400000000000000000000000000000000000000815250816000908051906020019062000ae192919062000c1a565b50806001908051906020019062000afa92919062000c1a565b50505062000b486040518060400160405280601f81526020017f596f2c206d79204e465420636f6e74726163742069732072656164792021210081525062000b4e60201b6200122a1760201c565b62000f9a565b62000bee8160405160240162000b65919062000eae565b6040516020818303038152906040527f41304fac000000000000000000000000000000000000000000000000000000007bffffffffffffffffffffffffffffffffffffffffffffffffffffffff19166020820180517bffffffffffffffffffffffffffffffffffffffffffffffffffffffff838183161783525050505062000bf160201b60201c565b50565b60008151905060006a636f6e736f6c652e6c6f679050602083016000808483855afa5050505050565b82805462000c289062000f24565b90600052602060002090601f01602090048101928262000c4c576000855562000c98565b82601f1062000c6757805160ff191683800117855562000c98565b8280016001018555821562000c98579182015b8281111562000c9757825182559160200191906001019062000c7a565b5b50905062000ca7919062000de0565b5090565b82805482825590600052602060002090810192821562000cff579160200282015b8281111562000cfe57825182908051906020019062000ced92919062000c1a565b509160200191906001019062000ccc565b5b50905062000d0e919062000dff565b5090565b82805482825590600052602060002090810192821562000d66579160200282015b8281111562000d6557825182908051906020019062000d5492919062000c1a565b509160200191906001019062000d33565b5b50905062000d75919062000dff565b5090565b82805482825590600052602060002090810192821562000dcd579160200282015b8281111562000dcc57825182908051906020019062000dbb92919062000c1a565b509160200191906001019062000d9a565b5b50905062000ddc919062000dff565b5090565b5b8082111562000dfb57600081600090555060010162000de1565b5090565b5b8082111562000e23576000818162000e19919062000e27565b5060010162000e00565b5090565b50805462000e359062000f24565b6000825580601f1062000e49575062000e6a565b601f01602090049060005260206000209081019062000e69919062000de0565b5b50565b600062000e7a8262000ed2565b62000e86818562000edd565b935062000e9881856020860162000eee565b62000ea38162000f89565b840191505092915050565b6000602082019050818103600083015262000eca818462000e6d565b905092915050565b600081519050919050565b600082825260208201905092915050565b60005b8381101562000f0e57808201518184015260208101905062000ef1565b8381111562000f1e576000848401525b50505050565b6000600282049050600182168062000f3d57607f821691505b6020821081141562000f545762000f5362000f5a565b5b50919050565b7f4e487b7100000000000000000000000000000000000000000000000000000000600052602260045260246000fd5b6000601f19601f8301169050919050565b613c348062000faa6000396000f3fe608060405234801561001057600080fd5b50600436106101165760003560e01c80636352211e116100a2578063b187301f11610071578063b187301f146102f1578063b88d4fde14610321578063c575757a1461033d578063c87b56dd1461036d578063e985e9c51461039d57610116565b80636352211e1461025757806370a082311461028757806395d89b41146102b7578063a22cb465146102d557610116565b806323b872dd116100e957806323b872dd146101b55780632de38d68146101d157806342842e0e14610201578063514dc8c61461021d57806362b41f491461024d57610116565b806301ffc9a71461011b57806306fdde031461014b578063081812fc14610169578063095ea7b314610199575b600080fd5b61013560048036038101906101309190612656565b6103cd565b6040516101429190612df8565b60405180910390f35b6101536104af565b6040516101609190612e13565b60405180910390f35b610183600480360381019061017e91906126a8565b610541565b6040516101909190612d68565b60405180910390f35b6101b360048036038101906101ae919061261a565b6105c6565b005b6101cf60048036038101906101ca9190612514565b6106de565b005b6101eb60048036038101906101e691906126a8565b61073e565b6040516101f89190612e13565b60405180910390f35b61021b60048036038101906102169190612514565b61085c565b005b610237600480360381019061023291906126a8565b61087c565b6040516102449190612e13565b60405180910390f35b61025561099a565b005b610271600480360381019061026c91906126a8565b610b94565b60405161027e9190612d68565b60405180910390f35b6102a1600480360381019061029c91906124af565b610c46565b6040516102ae9190613073565b60405180910390f35b6102bf610cfe565b6040516102cc9190612e13565b60405180910390f35b6102ef60048036038101906102ea91906125de565b610d90565b005b61030b600480360381019061030691906126a8565b610da6565b6040516103189190612e13565b60405180910390f35b61033b60048036038101906103369190612563565b610ec4565b005b610357600480360381019061035291906126a8565b610f26565b6040516103649190612e13565b60405180910390f35b610387600480360381019061038291906126a8565b611044565b6040516103949190612e13565b60405180910390f35b6103b760048036038101906103b291906124d8565b611196565b6040516103c49190612df8565b60405180910390f35b60007f80ac58cd000000000000000000000000000000000000000000000000000000007bffffffffffffffffffffffffffffffffffffffffffffffffffffffff1916827bffffffffffffffffffffffffffffffffffffffffffffffffffffffff1916148061049857507f5b5e139f000000000000000000000000000000000000000000000000000000007bffffffffffffffffffffffffffffffffffffffffffffffffffffffff1916827bffffffffffffffffffffffffffffffffffffffffffffffffffffffff1916145b806104a857506104a7826112c3565b5b9050919050565b6060600080546104be90613307565b80601f01602080910402602001604051908101604052809291908181526020018280546104ea90613307565b80156105375780601f1061050c57610100808354040283529160200191610537565b820191906000526020600020905b81548152906001019060200180831161051a57829003601f168201915b5050505050905090565b600061054c8261132d565b61058b576040517f08c379a000000000000000000000000000000000000000000000000000000000815260040161058290612ff3565b60405180910390fd5b6004600083815260200190815260200160002060009054906101000a900473ffffffffffffffffffffffffffffffffffffffff169050919050565b60006105d182610b94565b90508073ffffffffffffffffffffffffffffffffffffffff168373ffffffffffffffffffffffffffffffffffffffff161415610642576040517f08c379a000000000000000000000000000000000000000000000000000000000815260040161063990613033565b60405180910390fd5b8073ffffffffffffffffffffffffffffffffffffffff16610661611399565b73ffffffffffffffffffffffffffffffffffffffff161480610690575061068f8161068a611399565b611196565b5b6106cf576040517f08c379a00000000000000000000000000000000000000000000000000000000081526004016106c690612f33565b60405180910390fd5b6106d983836113a1565b505050565b6106ef6106e9611399565b8261145a565b61072e576040517f08c379a000000000000000000000000000000000000000000000000000000000815260040161072590613053565b60405180910390fd5b610739838383611538565b505050565b6060600061077261074e8461179f565b60405160200161075e9190612d02565b60405160208183030381529060405261194c565b9050600a805490508161078591906133b3565b9050600a81815481106107c1577f4e487b7100000000000000000000000000000000000000000000000000000000600052603260045260246000fd5b9060005260206000200180546107d690613307565b80601f016020809104026020016040519081016040528092919081815260200182805461080290613307565b801561084f5780601f106108245761010080835404028352916020019161084f565b820191906000526020600020905b81548152906001019060200180831161083257829003601f168201915b5050505050915050919050565b61087783838360405180602001604052806000815250610ec4565b505050565b606060006108b061088c8461179f565b60405160200161089c9190612d46565b60405160208183030381529060405261194c565b9050600d80549050816108c391906133b3565b9050600d81815481106108ff577f4e487b7100000000000000000000000000000000000000000000000000000000600052603260045260246000fd5b90600052602060002001805461091490613307565b80601f016020809104026020016040519081016040528092919081815260200182805461094090613307565b801561098d5780601f106109625761010080835404028352916020019161098d565b820191906000526020600020905b81548152906001019060200180831161097057829003601f168201915b5050505050915050919050565b60006109a6600761197f565b905060006109b38261073e565b905060006109c083610da6565b905060006109cd84610f26565b905060008383836040516020016109e693929190612be9565b60405160208183030381529060405290506000610a028661087c565b90506000600882600985604051602001610a1f9493929190612c30565b60405160208183030381529060405290506000610a6484610a3f8461198d565b604051602001610a50929190612cbd565b60405160208183030381529060405261198d565b9050600081604051602001610a799190612d24565b6040516020818303038152906040529050610ac86040518060400160405280601581526020017f0a2d2d2d2d2d2d2d2d2d2d2d2d2d2d2d2d2d2d2d2d000000000000000000000081525061122a565b610ad18161122a565b610b0f6040518060400160405280601581526020017f2d2d2d2d2d2d2d2d2d2d2d2d2d2d2d2d2d2d2d2d0a000000000000000000000081525061122a565b610b19338a611b4b565b610b238982611b69565b610b2d6007611bdd565b610b50604051806060016040528060278152602001613b98602791398a33611bf3565b7febb98688741ffa4c7589bf325de30cf7becb63de567842e1ccdb6cb949fdc82c338a604051610b81929190612dcf565b60405180910390a1505050505050505050565b6000806002600084815260200190815260200160002060009054906101000a900473ffffffffffffffffffffffffffffffffffffffff169050600073ffffffffffffffffffffffffffffffffffffffff168173ffffffffffffffffffffffffffffffffffffffff161415610c3d576040517f08c379a0000000000000000000000000000000000000000000000000000000008152600401610c3490612f73565b60405180910390fd5b80915050919050565b60008073ffffffffffffffffffffffffffffffffffffffff168273ffffffffffffffffffffffffffffffffffffffff161415610cb7576040517f08c379a0000000000000000000000000000000000000000000000000000000008152600401610cae90612f53565b60405180910390fd5b600360008373ffffffffffffffffffffffffffffffffffffffff1673ffffffffffffffffffffffffffffffffffffffff168152602001908152602001600020549050919050565b606060018054610d0d90613307565b80601f0160208091040260200160405190810160405280929190818152602001828054610d3990613307565b8015610d865780601f10610d5b57610100808354040283529160200191610d86565b820191906000526020600020905b815481529060010190602001808311610d6957829003601f168201915b5050505050905090565b610da2610d9b611399565b8383611c92565b5050565b60606000610dda610db68461179f565b604051602001610dc69190612c9b565b60405160208183030381529060405261194c565b9050600b8054905081610ded91906133b3565b9050600b8181548110610e29577f4e487b7100000000000000000000000000000000000000000000000000000000600052603260045260246000fd5b906000526020600020018054610e3e90613307565b80601f0160208091040260200160405190810160405280929190818152602001828054610e6a90613307565b8015610eb75780601f10610e8c57610100808354040283529160200191610eb7565b820191906000526020600020905b815481529060010190602001808311610e9a57829003601f168201915b5050505050915050919050565b610ed5610ecf611399565b8361145a565b610f14576040517f08c379a0000000000000000000000000000000000000000000000000000000008152600401610f0b90613053565b60405180910390fd5b610f2084848484611dff565b50505050565b60606000610f5a610f368461179f565b604051602001610f469190612c79565b60405160208183030381529060405261194c565b9050600c8054905081610f6d91906133b3565b9050600c8181548110610fa9577f4e487b7100000000000000000000000000000000000000000000000000000000600052603260045260246000fd5b906000526020600020018054610fbe90613307565b80601f0160208091040260200160405190810160405280929190818152602001828054610fea90613307565b80156110375780601f1061100c57610100808354040283529160200191611037565b820191906000526020600020905b81548152906001019060200180831161101a57829003601f168201915b5050505050915050919050565b606061104f8261132d565b61108e576040517f08c379a000000000000000000000000000000000000000000000000000000000815260040161108590612fd3565b60405180910390fd5b60006006600084815260200190815260200160002080546110ae90613307565b80601f01602080910402602001604051908101604052809291908181526020018280546110da90613307565b80156111275780601f106110fc57610100808354040283529160200191611127565b820191906000526020600020905b81548152906001019060200180831161110a57829003601f168201915b505050505090506000611138611e5b565b905060008151141561114e578192505050611191565b60008251111561118357808260405160200161116b929190612bc5565b60405160208183030381529060405292505050611191565b61118c84611e72565b925050505b919050565b6000600560008473ffffffffffffffffffffffffffffffffffffffff1673ffffffffffffffffffffffffffffffffffffffff16815260200190815260200160002060008373ffffffffffffffffffffffffffffffffffffffff1673ffffffffffffffffffffffffffffffffffffffff16815260200190815260200160002060009054906101000a900460ff16905092915050565b6112c08160405160240161123e9190612e13565b6040516020818303038152906040527f41304fac000000000000000000000000000000000000000000000000000000007bffffffffffffffffffffffffffffffffffffffffffffffffffffffff19166020820180517bffffffffffffffffffffffffffffffffffffffffffffffffffffffff8381831617835250505050611f19565b50565b60007f01ffc9a7000000000000000000000000000000000000000000000000000000007bffffffffffffffffffffffffffffffffffffffffffffffffffffffff1916827bffffffffffffffffffffffffffffffffffffffffffffffffffffffff1916149050919050565b60008073ffffffffffffffffffffffffffffffffffffffff166002600084815260200190815260200160002060009054906101000a900473ffffffffffffffffffffffffffffffffffffffff1673ffffffffffffffffffffffffffffffffffffffff1614159050919050565b600033905090565b816004600083815260200190815260200160002060006101000a81548173ffffffffffffffffffffffffffffffffffffffff021916908373ffffffffffffffffffffffffffffffffffffffff160217905550808273ffffffffffffffffffffffffffffffffffffffff1661141483610b94565b73ffffffffffffffffffffffffffffffffffffffff167f8c5be1e5ebec7d5bd14f71427d1e84f3dd0314c0f7b2291e5b200ac8c7c3b92560405160405180910390a45050565b60006114658261132d565b6114a4576040517f08c379a000000000000000000000000000000000000000000000000000000000815260040161149b90612f13565b60405180910390fd5b60006114af83610b94565b90508073ffffffffffffffffffffffffffffffffffffffff168473ffffffffffffffffffffffffffffffffffffffff1614806114f157506114f08185611196565b5b8061152f57508373ffffffffffffffffffffffffffffffffffffffff1661151784610541565b73ffffffffffffffffffffffffffffffffffffffff16145b91505092915050565b8273ffffffffffffffffffffffffffffffffffffffff1661155882610b94565b73ffffffffffffffffffffffffffffffffffffffff16146115ae576040517f08c379a00000000000000000000000000000000000000000000000000000000081526004016115a590612e93565b60405180910390fd5b600073ffffffffffffffffffffffffffffffffffffffff168273ffffffffffffffffffffffffffffffffffffffff16141561161e576040517f08c379a000000000000000000000000000000000000000000000000000000000815260040161161590612ed3565b60405180910390fd5b611629838383611f42565b6116346000826113a1565b6001600360008573ffffffffffffffffffffffffffffffffffffffff1673ffffffffffffffffffffffffffffffffffffffff1681526020019081526020016000206000828254611684919061321d565b925050819055506001600360008473ffffffffffffffffffffffffffffffffffffffff1673ffffffffffffffffffffffffffffffffffffffff16815260200190815260200160002060008282546116db919061313c565b92505081905550816002600083815260200190815260200160002060006101000a81548173ffffffffffffffffffffffffffffffffffffffff021916908373ffffffffffffffffffffffffffffffffffffffff160217905550808273ffffffffffffffffffffffffffffffffffffffff168473ffffffffffffffffffffffffffffffffffffffff167fddf252ad1be2c89b69c2b068fc378daa952ba7f163c4a11628f55a4df523b3ef60405160405180910390a461179a838383611f47565b505050565b606060008214156117e7576040518060400160405280600181526020017f30000000000000000000000000000000000000000000000000000000000000008152509050611947565b600082905060005b600082146118195780806118029061336a565b915050600a826118129190613192565b91506117ef565b60008167ffffffffffffffff81111561185b577f4e487b7100000000000000000000000000000000000000000000000000000000600052604160045260246000fd5b6040519080825280601f01601f19166020018201604052801561188d5781602001600182028036833780820191505090505b5090505b60008514611940576001826118a6919061321d565b9150600a856118b591906133b3565b60306118c1919061313c565b60f81b8183815181106118fd577f4e487b7100000000000000000000000000000000000000000000000000000000600052603260045260246000fd5b60200101907effffffffffffffffffffffffffffffffffffffffffffffffffffffffffffff1916908160001a905350600a856119399190613192565b9450611891565b8093505050505b919050565b60008160405160200161195f9190612bae565b6040516020818303038152906040528051906020012060001c9050919050565b600081600001549050919050565b606060008251905060008114156119b65760405180602001604052806000815250915050611b46565b600060036002836119c7919061313c565b6119d19190613192565b60046119dd91906131c3565b905060006020826119ee919061313c565b67ffffffffffffffff811115611a2d577f4e487b7100000000000000000000000000000000000000000000000000000000600052604160045260246000fd5b6040519080825280601f01601f191660200182016040528015611a5f5781602001600182028036833780820191505090505b5090506000604051806060016040528060408152602001613bbf604091399050600181016020830160005b86811015611b035760038101905062ffffff818a015116603f8160121c168401518060081b905060ff603f83600c1c1686015116810190508060081b905060ff603f8360061c1686015116810190508060081b905060ff603f831686015116810190508060e01b90508084526004840193505050611a8a565b506003860660018114611b1d5760028114611b2d57611b38565b613d3d60f01b6002830352611b38565b603d60f81b60018303525b508484525050819450505050505b919050565b611b65828260405180602001604052806000815250611f4c565b5050565b611b728261132d565b611bb1576040517f08c379a0000000000000000000000000000000000000000000000000000000008152600401611ba890612f93565b60405180910390fd5b80600660008481526020019081526020016000209080519060200190611bd892919061233b565b505050565b6001816000016000828254019250508190555050565b611c8d838383604051602401611c0b93929190612e35565b6040516020818303038152906040527fe3849f79000000000000000000000000000000000000000000000000000000007bffffffffffffffffffffffffffffffffffffffffffffffffffffffff19166020820180517bffffffffffffffffffffffffffffffffffffffffffffffffffffffff8381831617835250505050611f19565b505050565b8173ffffffffffffffffffffffffffffffffffffffff168373ffffffffffffffffffffffffffffffffffffffff161415611d01576040517f08c379a0000000000000000000000000000000000000000000000000000000008152600401611cf890612ef3565b60405180910390fd5b80600560008573ffffffffffffffffffffffffffffffffffffffff1673ffffffffffffffffffffffffffffffffffffffff16815260200190815260200160002060008473ffffffffffffffffffffffffffffffffffffffff1673ffffffffffffffffffffffffffffffffffffffff16815260200190815260200160002060006101000a81548160ff0219169083151502179055508173ffffffffffffffffffffffffffffffffffffffff168373ffffffffffffffffffffffffffffffffffffffff167f17307eab39ab6107e8899845ad3d59bd9653f200f220920489ca2b5937696c3183604051611df29190612df8565b60405180910390a3505050565b611e0a848484611538565b611e1684848484611fa7565b611e55576040517f08c379a0000000000000000000000000000000000000000000000000000000008152600401611e4c90612e73565b60405180910390fd5b50505050565b606060405180602001604052806000815250905090565b6060611e7d8261132d565b611ebc576040517f08c379a0000000000000000000000000000000000000000000000000000000008152600401611eb390613013565b60405180910390fd5b6000611ec6611e5b565b90506000815111611ee65760405180602001604052806000815250611f11565b80611ef08461179f565b604051602001611f01929190612bc5565b6040516020818303038152906040525b915050919050565b60008151905060006a636f6e736f6c652e6c6f679050602083016000808483855afa5050505050565b505050565b505050565b611f56838361213e565b611f636000848484611fa7565b611fa2576040517f08c379a0000000000000000000000000000000000000000000000000000000008152600401611f9990612e73565b60405180910390fd5b505050565b6000611fc88473ffffffffffffffffffffffffffffffffffffffff16612318565b15612131578373ffffffffffffffffffffffffffffffffffffffff1663150b7a02611ff1611399565b8786866040518563ffffffff1660e01b81526004016120139493929190612d83565b602060405180830381600087803b15801561202d57600080fd5b505af192505050801561205e57506040513d601f19601f8201168201806040525081019061205b919061267f565b60015b6120e1573d806000811461208e576040519150601f19603f3d011682016040523d82523d6000602084013e612093565b606091505b506000815114156120d9576040517f08c379a00000000000000000000000000000000000000000000000000000000081526004016120d090612e73565b60405180910390fd5b805181602001fd5b63150b7a0260e01b7bffffffffffffffffffffffffffffffffffffffffffffffffffffffff1916817bffffffffffffffffffffffffffffffffffffffffffffffffffffffff191614915050612136565b600190505b949350505050565b600073ffffffffffffffffffffffffffffffffffffffff168273ffffffffffffffffffffffffffffffffffffffff1614156121ae576040517f08c379a00000000000000000000000000000000000000000000000000000000081526004016121a590612fb3565b60405180910390fd5b6121b78161132d565b156121f7576040517f08c379a00000000000000000000000000000000000000000000000000000000081526004016121ee90612eb3565b60405180910390fd5b61220360008383611f42565b6001600360008473ffffffffffffffffffffffffffffffffffffffff1673ffffffffffffffffffffffffffffffffffffffff1681526020019081526020016000206000828254612253919061313c565b92505081905550816002600083815260200190815260200160002060006101000a81548173ffffffffffffffffffffffffffffffffffffffff021916908373ffffffffffffffffffffffffffffffffffffffff160217905550808273ffffffffffffffffffffffffffffffffffffffff16600073ffffffffffffffffffffffffffffffffffffffff167fddf252ad1be2c89b69c2b068fc378daa952ba7f163c4a11628f55a4df523b3ef60405160405180910390a461231460008383611f47565b5050565b6000808273ffffffffffffffffffffffffffffffffffffffff163b119050919050565b82805461234790613307565b90600052602060002090601f01602090048101928261236957600085556123b0565b82601f1061238257805160ff19168380011785556123b0565b828001600101855582156123b0579182015b828111156123af578251825591602001919060010190612394565b5b5090506123bd91906123c1565b5090565b5b808211156123da5760008160009055506001016123c2565b5090565b60006123f16123ec846130b3565b61308e565b90508281526020810184848401111561240957600080fd5b6124148482856132c5565b509392505050565b60008135905061242b81613b3b565b92915050565b60008135905061244081613b52565b92915050565b60008135905061245581613b69565b92915050565b60008151905061246a81613b69565b92915050565b600082601f83011261248157600080fd5b81356124918482602086016123de565b91505092915050565b6000813590506124a981613b80565b92915050565b6000602082840312156124c157600080fd5b60006124cf8482850161241c565b91505092915050565b600080604083850312156124eb57600080fd5b60006124f98582860161241c565b925050602061250a8582860161241c565b9150509250929050565b60008060006060848603121561252957600080fd5b60006125378682870161241c565b93505060206125488682870161241c565b92505060406125598682870161249a565b9150509250925092565b6000806000806080858703121561257957600080fd5b60006125878782880161241c565b94505060206125988782880161241c565b93505060406125a98782880161249a565b925050606085013567ffffffffffffffff8111156125c657600080fd5b6125d287828801612470565b91505092959194509250565b600080604083850312156125f157600080fd5b60006125ff8582860161241c565b925050602061261085828601612431565b9150509250929050565b6000806040838503121561262d57600080fd5b600061263b8582860161241c565b925050602061264c8582860161249a565b9150509250929050565b60006020828403121561266857600080fd5b600061267684828501612446565b91505092915050565b60006020828403121561269157600080fd5b600061269f8482850161245b565b91505092915050565b6000602082840312156126ba57600080fd5b60006126c88482850161249a565b91505092915050565b6126da81613251565b82525050565b6126e981613263565b82525050565b60006126fa826130f9565b612704818561310f565b93506127148185602086016132d4565b61271d816134a0565b840191505092915050565b600061273382613104565b61273d8185613120565b935061274d8185602086016132d4565b612756816134a0565b840191505092915050565b600061276c82613104565b6127768185613131565b93506127868185602086016132d4565b80840191505092915050565b6000815461279f81613307565b6127a98186613131565b945060018216600081146127c457600181146127d557612808565b60ff19831686528186019350612808565b6127de856130e4565b60005b83811015612800578154818901526001820191506020810190506127e1565b838801955050505b50505092915050565b600061281e603283613120565b9150612829826134b1565b604082019050919050565b6000612841602583613120565b915061284c82613500565b604082019050919050565b6000612864601c83613120565b915061286f8261354f565b602082019050919050565b6000612887600a83613131565b915061289282613578565b600a82019050919050565b60006128aa602483613120565b91506128b5826135a1565b604082019050919050565b60006128cd601983613120565b91506128d8826135f0565b602082019050919050565b60006128f0600b83613131565b91506128fb82613619565b600b82019050919050565b6000612913602c83613120565b915061291e82613642565b604082019050919050565b6000612936600d83613131565b915061294182613691565b600d82019050919050565b6000612959600183613131565b9150612964826136ba565b600182019050919050565b600061297c603883613120565b9150612987826136e3565b604082019050919050565b600061299f602a83613120565b91506129aa82613732565b604082019050919050565b60006129c2602983613120565b91506129cd82613781565b604082019050919050565b60006129e5602e83613120565b91506129f0826137d0565b604082019050919050565b6000612a08600283613131565b9150612a138261381f565b600282019050919050565b6000612a2b602083613120565b9150612a3682613848565b602082019050919050565b6000612a4e603183613120565b9150612a5982613871565b604082019050919050565b6000612a71602c83613120565b9150612a7c826138c0565b604082019050919050565b6000612a94602f83613120565b9150612a9f8261390f565b604082019050919050565b6000612ab7600a83613131565b9150612ac28261395e565b600a82019050919050565b6000612ada602183613120565b9150612ae582613987565b604082019050919050565b6000612afd600a83613131565b9150612b08826139d6565b600a82019050919050565b6000612b20601d83613131565b9150612b2b826139ff565b601d82019050919050565b6000612b43603183613120565b9150612b4e82613a28565b604082019050919050565b6000612b66607883613131565b9150612b7182613a77565b607882019050919050565b6000612b89600583613131565b9150612b9482613b12565b600582019050919050565b612ba8816132bb565b82525050565b6000612bba8284612761565b915081905092915050565b6000612bd18285612761565b9150612bdd8284612761565b91508190509392505050565b6000612bf58286612761565b9150612c008261294c565b9150612c0c8285612761565b9150612c178261294c565b9150612c238284612761565b9150819050949350505050565b6000612c3c8287612792565b9150612c488286612761565b9150612c548285612792565b9150612c608284612761565b9150612c6b82612929565b915081905095945050505050565b6000612c848261287a565b9150612c908284612761565b915081905092915050565b6000612ca6826128e3565b9150612cb28284612761565b915081905092915050565b6000612cc882612aaa565b9150612cd48285612761565b9150612cdf82612b59565b9150612ceb8284612761565b9150612cf6826129fb565b91508190509392505050565b6000612d0d82612af0565b9150612d198284612761565b915081905092915050565b6000612d2f82612b13565b9150612d3b8284612761565b915081905092915050565b6000612d5182612b7c565b9150612d5d8284612761565b915081905092915050565b6000602082019050612d7d60008301846126d1565b92915050565b6000608082019050612d9860008301876126d1565b612da560208301866126d1565b612db26040830185612b9f565b8181036060830152612dc481846126ef565b905095945050505050565b6000604082019050612de460008301856126d1565b612df16020830184612b9f565b9392505050565b6000602082019050612e0d60008301846126e0565b92915050565b60006020820190508181036000830152612e2d8184612728565b905092915050565b60006060820190508181036000830152612e4f8186612728565b9050612e5e6020830185612b9f565b612e6b60408301846126d1565b949350505050565b60006020820190508181036000830152612e8c81612811565b9050919050565b60006020820190508181036000830152612eac81612834565b9050919050565b60006020820190508181036000830152612ecc81612857565b9050919050565b60006020820190508181036000830152612eec8161289d565b9050919050565b60006020820190508181036000830152612f0c816128c0565b9050919050565b60006020820190508181036000830152612f2c81612906565b9050919050565b60006020820190508181036000830152612f4c8161296f565b9050919050565b60006020820190508181036000830152612f6c81612992565b9050919050565b60006020820190508181036000830152612f8c816129b5565b9050919050565b60006020820190508181036000830152612fac816129d8565b9050919050565b60006020820190508181036000830152612fcc81612a1e565b9050919050565b60006020820190508181036000830152612fec81612a41565b9050919050565b6000602082019050818103600083015261300c81612a64565b9050919050565b6000602082019050818103600083015261302c81612a87565b9050919050565b6000602082019050818103600083015261304c81612acd565b9050919050565b6000602082019050818103600083015261306c81612b36565b9050919050565b60006020820190506130886000830184612b9f565b92915050565b60006130986130a9565b90506130a48282613339565b919050565b6000604051905090565b600067ffffffffffffffff8211156130ce576130cd613471565b5b6130d7826134a0565b9050602081019050919050565b60008190508160005260206000209050919050565b600081519050919050565b600081519050919050565b600082825260208201905092915050565b600082825260208201905092915050565b600081905092915050565b6000613147826132bb565b9150613152836132bb565b9250827fffffffffffffffffffffffffffffffffffffffffffffffffffffffffffffffff03821115613187576131866133e4565b5b828201905092915050565b600061319d826132bb565b91506131a8836132bb565b9250826131b8576131b7613413565b5b828204905092915050565b60006131ce826132bb565b91506131d9836132bb565b9250817fffffffffffffffffffffffffffffffffffffffffffffffffffffffffffffffff0483118215151615613212576132116133e4565b5b828202905092915050565b6000613228826132bb565b9150613233836132bb565b925082821015613246576132456133e4565b5b828203905092915050565b600061325c8261329b565b9050919050565b60008115159050919050565b60007fffffffff0000000000000000000000000000000000000000000000000000000082169050919050565b600073ffffffffffffffffffffffffffffffffffffffff82169050919050565b6000819050919050565b82818337600083830152505050565b60005b838110156132f25780820151818401526020810190506132d7565b83811115613301576000848401525b50505050565b6000600282049050600182168061331f57607f821691505b6020821081141561333357613332613442565b5b50919050565b613342826134a0565b810181811067ffffffffffffffff8211171561336157613360613471565b5b80604052505050565b6000613375826132bb565b91507fffffffffffffffffffffffffffffffffffffffffffffffffffffffffffffffff8214156133a8576133a76133e4565b5b600182019050919050565b60006133be826132bb565b91506133c9836132bb565b9250826133d9576133d8613413565b5b828206905092915050565b7f4e487b7100000000000000000000000000000000000000000000000000000000600052601160045260246000fd5b7f4e487b7100000000000000000000000000000000000000000000000000000000600052601260045260246000fd5b7f4e487b7100000000000000000000000000000000000000000000000000000000600052602260045260246000fd5b7f4e487b7100000000000000000000000000000000000000000000000000000000600052604160045260246000fd5b6000601f19601f8301169050919050565b7f4552433732313a207472616e7366657220746f206e6f6e20455243373231526560008201527f63656976657220696d706c656d656e7465720000000000000000000000000000602082015250565b7f4552433732313a207472616e736665722066726f6d20696e636f72726563742060008201527f6f776e6572000000000000000000000000000000000000000000000000000000602082015250565b7f4552433732313a20746f6b656e20616c7265616479206d696e74656400000000600082015250565b7f54484952445f574f524400000000000000000000000000000000000000000000600082015250565b7f4552433732313a207472616e7366657220746f20746865207a65726f2061646460008201527f7265737300000000000000000000000000000000000000000000000000000000602082015250565b7f4552433732313a20617070726f766520746f2063616c6c657200000000000000600082015250565b7f5345434f4e445f574f5244000000000000000000000000000000000000000000600082015250565b7f4552433732313a206f70657261746f7220717565727920666f72206e6f6e657860008201527f697374656e7420746f6b656e0000000000000000000000000000000000000000602082015250565b7f3c2f746578743e3c2f7376673e00000000000000000000000000000000000000600082015250565b7f2000000000000000000000000000000000000000000000000000000000000000600082015250565b7f4552433732313a20617070726f76652063616c6c6572206973206e6f74206f7760008201527f6e6572206e6f7220617070726f76656420666f7220616c6c0000000000000000602082015250565b7f4552433732313a2062616c616e636520717565727920666f7220746865207a6560008201527f726f206164647265737300000000000000000000000000000000000000000000602082015250565b7f4552433732313a206f776e657220717565727920666f72206e6f6e657869737460008201527f656e7420746f6b656e0000000000000000000000000000000000000000000000602082015250565b7f45524337323155524953746f726167653a2055524920736574206f66206e6f6e60008201527f6578697374656e7420746f6b656e000000000000000000000000000000000000602082015250565b7f227d000000000000000000000000000000000000000000000000000000000000600082015250565b7f4552433732313a206d696e7420746f20746865207a65726f2061646472657373600082015250565b7f45524337323155524953746f726167653a2055524920717565727920666f722060008201527f6e6f6e6578697374656e7420746f6b656e000000000000000000000000000000602082015250565b7f4552433732313a20617070726f76656420717565727920666f72206e6f6e657860008201527f697374656e7420746f6b656e0000000000000000000000000000000000000000602082015250565b7f4552433732314d657461646174613a2055524920717565727920666f72206e6f60008201527f6e6578697374656e7420746f6b656e0000000000000000000000000000000000602082015250565b7f7b226e616d65223a202200000000000000000000000000000000000000000000600082015250565b7f4552433732313a20617070726f76616c20746f2063757272656e74206f776e6560008201527f7200000000000000000000000000000000000000000000000000000000000000602082015250565b7f46495253545f574f524400000000000000000000000000000000000000000000600082015250565b7f646174613a6170706c69636174696f6e2f6a736f6e3b6261736536342c000000600082015250565b7f4552433732313a207472616e736665722063616c6c6572206973206e6f74206f60008201527f776e6572206e6f7220617070726f766564000000000000000000000000000000602082015250565b7f222c20226465736372697074696f6e223a20224f6e6c7920796f75206861766560008201527f2074686520706f77657220746f20686f6c642074686973204e46542c2069747360208201527f20617320756e696971756520617320796f75222c22696d616765223a2022646160408201527f74613a696d6167652f7376672b786d6c3b6261736536342c0000000000000000606082015250565b7f434f4c4f52000000000000000000000000000000000000000000000000000000600082015250565b613b4481613251565b8114613b4f57600080fd5b50565b613b5b81613263565b8114613b6657600080fd5b50565b613b728161326f565b8114613b7d57600080fd5b50565b613b89816132bb565b8114613b9457600080fd5b5056fe416e204e4654207769746820494420257320686173206265656e206d696e7465642062792025734142434445464748494a4b4c4d4e4f505152535455565758595a6162636465666768696a6b6c6d6e6f707172737475767778797a303132333435363738392b2fa26469706673582212207d62dd862cf023a4b6ec6632b75e9efcad90fce7fb8178f6348a0597c086e3ac64736f6c634300080100333c73766720786d6c6e733d27687474703a2f2f7777772e77332e6f72672f323030302f73766727207072657365727665417370656374526174696f3d27784d696e594d696e206d656574272076696577426f783d273020302033353020333530273e3c7374796c653e2e62617365207b2066696c6c3a2077686974653b20666f6e742d66616d696c793a2073657269663b20666f6e742d73697a653a20323470783b207d3c2f7374796c653e3c726563742077696474683d273130302527206865696768743d2731303025272066696c6c3d27272f3e3c7465787420783d273530252720793d273530252720636c6173733d27626173652720646f6d696e616e742d626173656c696e653d276d6964646c652720746578742d616e63686f723d276d6964646c65273e",
  "linkReferences": {},
  "deployedLinkReferences": {}
}